:100000006F0040016F10400D500000000000000024
:1000100073002030971100009381C1621701020024
:10002000130141FE971200009382826417130000AF
:100030001303036463F8620023A00200938242006A
:10004000E3EC62FEEF1080169702000083A202FC30
:1000500067800200000000000000000000000000B7
:100060003306C500930705006394C700678000004E
:1000700093871700A38FB7FE6FF01FFF9307000051
:100080006394C700678000003387F500834607004C
:100090003307F500938717002300D7006FF05FFE4A
:1000A000130101FF232481002326110013040500FE
:1000B000637EB500EFF09FFC8320C10013050400B0
:1000C000032481001301010167800000130706006B
:1000D000B387E5003306C50093860700B385D74094
:1000E000E3FCE5FC83C5F6FF9386F6FF1306F6FFF7
:1000F0002300B6006FF09FFE130700006316C700D1
:100100001305000067800000B307E500B386E50033
:1001100083870700838606006386D7003385D74030
:1001200067800000130717006FF05FFD639A0500FA
:10013000930700032300F500A3000500678000007B
:100140003717000013074754130387029306000074
:10015000130E100003280700130630009307000059
:1001600063F8050363940700638A06003306D5002D
:10017000938707032300F6009386160013074700B2
:10018000E31AE3FC3305D500230005006780000077
:10019000B318C80063EA1501B31ECE00B387D701B8
:1001A00093F7F70FB3851541130616006FF05FFB49
:1001B00063DA05009307D0022300F500B305B040D1
:1001C000130515006FF09FF683270500B3E7B7000E
:1001D0002320F500678000008327050093C5F5FF05
:1001E000B3F5F5002320B500678000000325450026
:1001F0003375B5003335A000678000002322B500B9
:1002000067800000130101FF2324810083258500FE
:10021000130405000325C50023261100EFF01FFD80
:10022000630C0506832584000325C400EFF01FFD41
:100230008347040193F7F70F6384070E8347040194
:100240008326040093F7F70F63860704834724018E
:100250001306000193F7F70FB307F40083C73701C4
:100260000347240193F7F70F130717001377F70FCE
:100270002309E400034724011377F70F6314C70031
:1002800023090400034704011307F7FF1377F70F4F
:100290002308E4002380F600832544000325C400DE
:1002A000EFF0DFF463060506832544000325C40050
:1002B000EFF0DFF4832704009306000103C7070073
:1002C000834734021377F70F93F7F70F6382D7044E
:1002D0008347440293F7F70FB307F4002383E70241
:1002E000834744029387170093F7F70F2302F40222
:1002F0008347440293F7F70F6394D7002302040265
:10030000834734029387170093F7F70FA301F40292
:100310008320C100032481001301010167800000D4
:10032000230B04026FF05FF7130101FF83274500E1
:100330008325850023248100130405000325C500BF
:10034000B3E5F50023261100EFF01FE983274400F1
:10035000832584000325C400B3E5F500EFF01FEA10
:100360002308040023090400A3080400A3010402D5
:10037000A30204022302040283258400832744008D
:100380000325C400230B0402032481008320C10041
:10039000B3E5F500130101016FF01FE3130101FF45
:1003A00023248100232291002320210123261100F0
:1003B0001304050093840500130900018347040119
:1003C00093F7F70FE38C27FF832584000325C400F0
:1003D000EFF09FE08347640393F7F70F6388070606
:1003E0008347040193F7F70F6382270583471401BE
:1003F00093F7F70FB307F400A3899700834714011D
:100400009387170093F7F70FA308F40083471401AD
:1004100093F7F70F63942701A308040083470401AF
:100420009387170093F7F70F2308F40083258400C0
:100430000325C400032481008320C10083244100DC
:1004400003290100130101016FF01FD89307100069
:10045000230BF40283270400238097006FF01FFD15
:10046000130101FF23248100232611002322910080
:10047000130405008347340293F7F70FE38C07FE5C
:10048000832544000325C400EFF01FD583443402C4
:1004900093F4F40F638604048347540213070001A6
:1004A00093F7F70FB307F40083C46702834754023E
:1004B00093F4F40F9387170093F7F70FA302F40256
:1004C0008347540293F7F70F6394E700A3020402F3
:1004D000834734029387F7FF93F7F70FA301F402E2
:1004E0000325C40083254400EFF01FCE8320C10004
:1004F00003248100138504008324410013010101BA
:1005000067800000130101FF232481002322910052
:10051000232611009304050013840500834504007D
:10052000639C05008320C1000324810083244100D3
:1005300013010101678000001385040013041400F7
:10054000EFF0DFE56FF09FFD034535021375F50F02
:100550003335A000678000008347650393F7F70FEA
:10056000E39C07FE67800000130101FF2324810044
:10057000130405000325050023261100EFF0DFDA40
:100580008320C10023020400032481001301010120
:1005900067800000130101FF23248100130405007C
:1005A0000325050023261100EFF01FFA6310050252
:1005B00003250400EFF0DFEA9307D0006312F50291
:1005C0008347440023020400A302F40003455400BF
:1005D0008320C10003248100130101016780000012
:1005E000930705FD93F7F70F13079000E360F7FEFD
:1005F0000347440093172700B387E700939717003A
:10060000938707FD3305F5002302A4006FF01FFC5C
:10061000130101FF232481008325450013040500F5
:100620000325850023261100EFF01FBB832544001E
:1006300003258400EFF09FBC832704008320C100C2
:100640000324810023A0070013010101678000003B
:100650008327050003A507006780000083270500A6
:1006600023A0B7006780000083254500032585008F
:100670006FF09FB583254500032585006FF0DFB53A
:1006800083254500032585006FF05FB6832545006F
:10069000032585006FF09FB6130101FF232481001D
:1006A0002326110013040500EFF05FFE83270400EA
:1006B00023A2070013050400EFF09FFCE30C05FEE6
:1006C00013050400032481008320C10013010101EC
:1006D0006FF0DFFB130101FE232C8100232A910020
:1006E0001384050093040500832545000325850038
:1006F000232E11002328210123263101138906000E
:1007000093090600EFF05FAD83A5440003A58400C4
:10071000EFF0DFAEB33580009395250063840900C8
:1007200093E5250083A704008320C10103248101F0
:1007300023A2B7001309F9FF23A427018324410151
:10074000032901018329C100130101026780000010
:10075000032705008327470093E717002322F700AC
:1007600067800000032705008327470093F7E7FF12
:100770002322F7006780000083270500130101FF93
:1007800023248100232611001304050023A0B700B1
:100790008325440003258400EFF05FA5E30A05FEEE
:1007A0000325840083254400EFF05FA58327040020
:1007B0008320C1000324810003A507001375F50FF2
:1007C0001301010167800000130101FF2324810050
:1007D00083458500130405008346C5000346950044
:1007E0000325050023261100EFF0DFEE032544006A
:1007F000EFF01FE283250401032544000324810058
:100800008320C1009385F5FF130101016FF01FE5FF
:10081000130101FE232C810013040500032545006C
:10082000232E1100232A91002328210123263101A0
:100830002324410193890500130A06001389060049
:10084000EFF09FE50325040093040000EFF05FF054
:100850000325440063963403EFF01FE403250400EE
:10086000032481018320C101832441010329010163
:100870008329C100032A8100130101026FF09FEE5A
:10088000EFF09FE1B3079A0083C50700032504003A
:10089000EFF09FEE63060900B30799002380A700DD
:1008A000938414006FF0DFFA6FF01FF2130101FE62
:1008B000232C8100232E1100930740F82304F1001C
:1008C00083C705009306810013840500A304F1008B
:1008D00083C7150013860600230601002305F100D7
:1008E00083C7250093055000A305F100EFF05FF2E8
:1008F00083479100034781008320C10193978700BC
:10090000B3E7E7002312F4008347B1000347A100D7
:1009100093978700B3E7E7002313F4008347C100F0
:1009200013D717001377170093F717002304E40079
:10093000A304F40003248101130101026780000075
:10094000130101FF23248100232611001304050055
:10095000EFF09FE713050400032481008320C1000A
:100960003716000093060000130606649305300056
:10097000130101016FF0DFE9130101FE37160000DA
:10098000232C810093064100138405001306C656EC
:100990009305A000232E1100EFF09FE7930561005F
:1009A0001305040013068000EFF04FED8320C10112
:1009B0000324810113010102678000008327850061
:1009C000130101FE232C81001304050003A5470039
:1009D000232E1100232A91002328210123263101EF
:1009E00093890500EFF0DFC6832784008325440048
:1009F0009304050003A547009385F5FF1309000044
:100A0000EFF0DFC5832784001309190003A5470011
:100A1000EFF09FC8E39829FF832784000324810116
:100A20008320C101032901018329C10003A54700D7
:100A30009385040083244101130101026FF01FC25A
:100A4000130101FE232C81001304050003258500FA
:100A500093075002A304B1002305C100A305D100F0
:100A6000130681009306000093055000232E110009
:100A70002304F1002306E100EFF09FD913050400E1
:100A800093055000EFF09FF38320C10103248101FF
:100A900013010102678000001307F0039306F005BD
:100AA00013060000930500006FF09FF9130101FD8C
:100AB0002320210303290500232611022324810278
:100AC00023229102232C4101232E31019304A00003
:100AD000930540012300990013040500EFF01FEE79
:100AE000930780002300F90093051000130504000C
:100AF000EFF0DFEC930510001305040023009900CC
:100B0000EFF0DFEB03258400EFF01FCCB7150000FA
:100B100093858557138AD50383C405000325840074
:100B2000938915009306000093850400138609003D
:100B3000EFF01FCEB3859900E3E045FF13050400F5
:100B4000EFF09FF59307E0002300F9001305040080
:100B500093059001EFF09FE6032584009307F0FAD8
:100B60001306F1009306000093051000A307F1009F
:100B7000EFF01FCA1305040093054006EFF01FE4D1
:100B80008320C1020324810283244102032901023C
:100B90008329C101032A8101130101036780000039
:100BA00093F7F50F13D705011377F7019397B70064
:100BB00093D53500B3E7E70093F5057EB3E7B700BB
:100BC000139707011357070113578700130101FFFC
:100BD0002300E500A300F500130101016780000078
:100BE000130101FD9307500123248102230CF1001E
:100BF00013040500B7770000032585009387F75598
:100C00002326D100A30CB100231DF100230EC10047
:100C10009307F0031306810193060000930560001B
:100C20002326110223229102A30EF100EFF05FBEF2
:100C30008325C10013054101EFF09FF683240400D2
:100C40009307F000130641012380F400032584007C
:100C50009306000093052000EFF09FBB9307E00090
:100C60002380F4001305040093055000EFF01FD516
:100C70008320C10203248102832441021301010362
:100C800067800000130101FD232481021304050085
:100C900013D58700230FA100032584009388070044
:100CA00013D80701A30CB10093071002230DC10054
:100CB000A30DD10013068101930600009305800067
:100CC00023261102230CF100230EE100A30E1101D3
:100CD000A30F0101EFF0DFB31305040093055000EB
:100CE000EFF0DFCD8320C102032481021301010351
:100CF00067800000130101FD232481021304050015
:100D000013D58700230CA1000325840093880700D6
:100D100013D80701930760022318F100A309B1005B
:100D200093072002230AC100A30AD1001306010180
:100D3000930600009305D000232611022309F10039
:100D4000230BE100A30B1101A30C0101231D0100E2
:100D5000230E0100EFF0DFAB1305040093055000F4
:100D6000EFF0DFC58320C1020324810213010103D8
:100D700067800000130101FD232481021304050094
:100D800013558800A30DA10003258400138F0700CD
:100D900093DE870013D3070193076012935808016D
:100DA0002318F100A309B10093072002230AC10010
:100DB000A30AD10013060101930600009305D00099
:100DC000232611022309F100230BE100A30BE1010B
:100DD000230CD101A30C6100230D0101230E11018D
:100DE000EFF01FA31305040093055000EFF01FBDA3
:100DF0008320C102032481021301010367800000E4
:100E0000130101FE232C8100130405001305300299
:100E10002304A10003258400A304B1002305C1001D
:100E2000A305D1001306810093060000930570000E
:100E3000232E11002306E100A306F1002307010180
:100E4000EFF01F9D1305040093055000EFF01FB74E
:100E50008320C10103248101130101026780000086
:100E6000130101FE2326310193951500B7090001F6
:100E7000232C8100232A910023282101232E1100F5
:100E800013040500930406003309B5009389F9FFA4
:100E9000631024038320C1010324810183244101C1
:100EA000032901018329C1001301010267800000A9
:100EB00083C5140083C704001305040093958500BF
:100EC000B3E7F50083C524001304240093843400A1
:100ED00093950501B3E5F500B3F53501EFF05FCC6F
:100EE0006FF01FFB130101FD232481021304050091
:100EF0000325850023229102938407009307500164
:100F00002304F100A304B1002305D1009307500787
:100F10002306C100930600001306810093056000BC
:100F20002326110223202103232E31011309080057
:100F3000A306E100A305F100EFF09F8D83290400D3
:100F40009307F000130609002380F90003258400AD
:100F50009385040093060000EFF09F8B9307E00059
:100F60002380F9001305040093055000EFF01FA53E
:100F70008320C10203248102832441020329010248
:100F80008329C1011301010367800000130101FFE0
:100F900023248100832545001304050003258500D3
:100FA00023261100EFF04FA383254400032584007E
:100FB000032481008320C100130101016FF00FA4FD
:100FC000130101FF2322910093840600939784006C
:100FD00083260500B3E7B70093150601B3E7B70012
:100FE0002324810023202101232611001309070057
:100FF00023A2F60013040500130700009307000066
:10100000930540006358C7003305E9000345050018
:10101000B3E7A7001307170093978700E314B7FE01
:1010200023A0F6008325440003258400EFF00F9CE5
:10103000E30A05FE8325440003258400EFF00F9C9E
:1010400083270400B306990083A70700631ED90015
:101050008320C1000324810083244100032901006F
:101060001301010167800000A38FF6FE93D787006C
:101070009386F6FF6FF09FFD032505006FF01FF1CB
:101080001387060093060600138605008345450076
:10109000032505006FF0DFF26FF01FFE130101FE64
:1010A0009306C1001306200093051000232E1100A3
:1010B00023160100EFF0DFFC8347C1000345D10098
:1010C0008320C10193975700135535003365F50010
:1010D0001301010267800000130101FB2324F102C8
:1010E000B7170000232EA10203A54766232611048B
:1010F000232451042322610423207104232CB102F0
:10110000232AC1022328D1022326E102232201033C
:1011100023201103232EC101232CD101232AE10115
:101120002328F101EFF00F8EB717000003A54765E4
:10113000EFF04F8DB717000083A7076613850700F0
:101140002326F100EFF0CFD3630E05000325C10085
:10115000EFF0CFD3371700008327C76693871700B8
:101160002326F7668320C1048322810403234104DC
:10117000832301040325C10383258103032641033F
:10118000832601030327C10283278102032841022A
:1011900083280102032EC101832E8101032F410107
:1011A000832F01011301010573002030B7170000E0
:1011B00083A74766130101FA232E11041385070044
:1011C0002320F100232C8104232A910423282105C4
:1011D00023263105232441052322510523206105BF
:1011E000EFF08F9403250100B71500009385855B10
:1011F000EFF04FB103250100B71500009385C55CE2
:10120000EFF04FB003250100B71500009385C55DD1
:10121000EFF04FAFB717000083A70766B7140000C1
:1012200093090000138507002322F100EFF04FBE61
:1012300003254100B795980093850568EFF00FC22C
:10124000032541003714000037190000EFF0CFC12B
:10125000B717000083A78765371A0000B71A000088
:10126000138507002324F100EFF01FE3B7170000F8
:1012700083A74764130B1000138507002322F10096
:10128000EFF08FE2B717000083A7076523A6046677
:10129000231E0100230F01002326F1000325010076
:1012A000EFF08FAA630605028320C10503248105A0
:1012B00083244105032901058329C104032A8104EC
:1012C000832A4104032B01041301010667800000F7
:1012D0000325C100EFF00FAC930505001305810253
:1012E000EFE01FED83A7C466E38A37FB03254100C7
:1012F0009305C101EFF08FDB0325C100EFF0CFA60E
:1013000003258100EFF09FD99355F54193F5F50042
:10131000B385A50093D545409395050193D5054127
:1013200013054103EFE0DFE8035701029307700C58
:1013300063E0E70403250100B71500009385C55E4F
:10134000EFF04F9C0325010093054103EFF08F9BC5
:1013500003250100B715000093850561EFF08F9A12
:101360009307F00F231EF100230F01006F004007C9
:101370008356210263E0D704930700F0231EF10097
:101380008357E4480347C948230F01009397170088
:101390009397070193D70701630807009387170006
:1013A0002317F4486F00C003E39C07FEB787FFFFD5
:1013B0006FF01FFF9307003263FCD7049307F0FF21
:1013C000230FF1008346C9488357E448231E0100D8
:1013D00013D71700638A0602630407022317E44841
:1013E0000357E44803254100B707008023A0E70026
:1013F0009305C101EFF08FCB938919006FF01FEABD
:10140000231764496FF0DFFDB3E7E7006FF05FF982
:1014100063FCE7020325010093058A61EFF08F8EDC
:101420000325010093058102EFF0CF8D0325010014
:1014300093858A63EFF00F8D9307F0FF231EF10071
:10144000230FF1006FF0DFF9834741026386070045
:10145000231E01006FF05FF183475102E38207F81A
:101460008357E44893C7F7FF2317F4488347C948D5
:0C14700093C717002306F9486FF09FF6A1
:10147C00BC14000000000000F41400004B0000003D
:04148C00010001005A
:10149000A4140000B014000000000000640000006C
:1014A000A00F000000000089400000000000008143
:1014B000000000882000000000000081000000847F
:1014C0000800000000000000000000810000000093
:1014D000000000000000000000000000000000000C
:1014E00000000000000000000000000000000000FC
:1014F00000000000000000861000000000000081D5
:101500000000008304000000000000810000008251
:101510000100000002000000000000810000000047
:1015200000000000000000000000000000000000BB
:1015300000000000000000000000000000000000AB
:0415400000000000A7
:1015440000CA9A3B00E1F5058096980040420F00DE
:10155400A086010010270000E803000064000000DA
:101564000A000000010000000B0E00000000000053
:101574000000000001FD011201AE02A07202A100F0
:1015840002A20001A402A83F02AD8E02B00B02B178
:101594003102B3F0028A64028B78028C6402BB3A93
:1015A40002BE3E02870602819102825002837D01BF
:1015B4002E000000546865726D6F6D65746572204D
:1015C40044656D6F2E0A0000536F6E61722044658E
:1015D4006D6F2E0A000000004A6F79737469636BA3
:1015E4002044656D6F2E0A006C612074656D706512
:1015F400726174757265206465206C612073616C1E
:101604006C6520657374203A2000000020C2B0434A
:10161400200A0000756E206F626A6574206120657F
:101624007465206465746563746520C3A0203A20E2
:0A1634000000000020636D200A0092
:101640000A2D020090140000A4140000B014000041
:101650007C140000BC14000084140000F41400008A
:0C166000001500000C15000000000081C7
:00000001FF
